:100000000C9470030C9498030C9498030C9498032C
:100010000C9498030C9498030C9498030C949803F4
:100020000C9498030C9498030C9464070C94D307D5
:100030000C9498030C9498030C9498030C949803D4
:100040000C9498030C9498030C9498030C949803C4
:100050000C9498030C9498030C9498030C94050A40
:100060000C9498030C9498030C9498030C949803A4
:100070000C9498030C9498030C9498030C94980394
:100080000C9498030C9498030C9498030C94980384
:100090000C9498030C9498030C9498030C94980374
:1000A0000C9498030C9498030C949803000000009F
:1000B000003E5B4F5B3E3E6B4F6B3E1C3E7C3E1CEE
:1000C000183C7E3C181C577D571C1C5E7F5E1C0034
:1000D000183C1800FFE7C3E7FF0018241800FFE7EB
:1000E000DBE7FF30483A060E2629792926407F05AE
:1000F0000507407F05253F5A3CE73C5A7F3E1C1CC4
:1001000008081C1C3E7F14227F22145F5F005F5F83
:1001100006097F017F006689956A6060606060946F
:10012000A2FFA29408047E040810207E2010080874
:100130002A1C08081C2A08081E101010100C1E0C7F
:100140001E0C30383E3830060E3E0E060000000011
:100150000000005F00000007000700147F147F14F8
:10016000242A7F2A1223130864623649562050003D
:1001700008070300001C2241000041221C002A1C29
:100180007F1C2A08083E0808008070300008080814
:100190000808000060600020100804023E51494534
:1001A0003E00427F400072494949462141494D3352
:1001B0001814127F1027454545393C4A49493141B9
:1001C000211109073649494936464949291E000087
:1001D00014000000403400000008142241141414DC
:1001E0001414004122140802015909063E415D59C8
:1001F0004E7C1211127C7F494949363E41414122D1
:100200007F4141413E7F494949417F090909013EFA
:10021000414151737F0808087F00417F4100204021
:10022000413F017F081422417F404040407F021C33
:10023000027F7F0408107F3E4141413E7F0909094A
:10024000063E4151215E7F09192946264949493216
:1002500003017F01033F4040403F1F2040201F3FDC
:100260004038403F63140814630304780403615961
:10027000494D43007F4141410204081020004141A3
:10028000417F04020102044040404040000307084F
:100290000020545478407F2844443838444444284B
:1002A000384444287F385454541800087E090218F2
:1002B000A4A49C787F0804047800447D400020407A
:1002C000403D007F1028440000417F40007C0478BE
:1002D00004787C080404783844444438FC18242406
:1002E0001818242418FC7C08040408485454542486
:1002F00004043F44243C4040207C1C2040201C3C03
:100300004030403C44281028444C9090907C4464F9
:10031000544C44000836410000007700000041368C
:10032000080002010204023C2623263C1EA1A16112
:10033000123A4040207A3854545559215555794144
:100340002154547841215554784020545579400C1B
:100350001E527212395555555939545454593955FC
:100360005454580000457C410002457D420001453F
:100370007C40F0292429F0F0282528F07C545545AC
:10038000002054547C547C0A097F4932494949323F
:100390003248484832324A4848303A4141217A3A54
:1003A00042402078009DA0A07D39444444393D401E
:1003B00040403D3C24FF2424487E4943662B2FFCCB
:1003C0002F2BFF0929F620C0887E09032054547979
:1003D000410000447D413048484A32384040227A4A
:1003E000007A0A0A727D0D19317D2629292F2826C7
:1003F0002929292630484D402038080808080808CF
:100400000808382F10C8ACBA2F102834FA00007B27
:10041000000008142A142222142A1408950022002D
:1004200095AA005500AAAA55AA55AA000000FF00E7
:10043000101010FF00141414FF001010FF00FF1024
:1004400010F010F0141414FC001414F700FF000056
:10045000FF00FF1414F404FC141417101F10101FD5
:10046000101F1414141F00101010F0000000001FC3
:10047000101010101F10101010F010000000FF10CE
:100480001010101010101010FF10000000FF1400CA
:1004900000FF00FF00001F10170000FC04F41414FC
:1004A0001710171414F404F40000FF00F7141414C8
:1004B00014141414F700F7141414171410101F1048
:1004C0001F141414F4141010F010F000001F101F6B
:1004D0000000001F14000000FC140000F010F010D9
:1004E00010FF10FF141414FF141010101F00000050
:1004F00000F010FFFFFFFFFFF0F0F0F0F0FFFFFF54
:100500000000000000FFFF0F0F0F0F0F38444438AA
:10051000447C2A2A3E147E02020606027E027E02E5
:1005200063554941633844443C04407E201E200604
:10053000027E020299A5E7A5991C2A492A1C4C7241
:1005400001724C304A4D4D303048784830BC625AC8
:10055000463D3E494949007E0101017E2A2A2A2A58
:100560002A44445F444440514A444040444A514034
:100570000000FF0103E080FF000008086B6B0836F5
:1005800012362436060F090F060000181800000066
:100590001010003040FF0101001F01011E00191D55
:1005A0001712003C3C3C3C0000000000F0F89C8E20
:1005B0008783878E9CF8F00000FEFF03030303038C
:1005C000070EFCF80000FEFF0303030303070EFC05
:1005D000F80000FFFF00000000000000FFFF000027
:1005E000FEFF8383838383C7EE7C380000F8FC0E14
:1005F00007030303070EFCF800003F7FE0C0808084
:10060000C0E07F3FFFFF01010101010101FFFF0089
:1006100000FFFF0C0C0C0C1C3E77E3C100007FFFB9
:10062000C0C0C0C0C0E0703F1F00001F3F70E0C0EE
:10063000C0C0E0703F1F00007FFFC1C1C1C1C1E366
:10064000773E1C00001F3F70E0C0C0C0E0703F1F3D
:10065000000000000001FFFF01000000D5F08D1434
:10066000A1C881CFD9F1AF2000080B00020202001F
:100670000009040000010202000005240010010529
:100680002401010104240206052406000107058156
:100690000310004009040100020A000000070502DF
:1006A0000240000007058302400000040309041211
:1006B000010002EF020140412336800001010203E4
:1006C0000141726475696E6F204C4C430041726445
:1006D00075696E6F204C656F6E6172646F00820A7F
:1006E00011241FBECFEFDAE0DEBFCDBF11E0A0E0E6
:1006F000B1E0E2EDF6E202C005900D92AE37B1072F
:10070000D9F726E0AEE7B1E001C01D92AD34B207E3
:10071000E1F713E0C0E7D3E004C02197FE010E9497
:100720006113CF36D107C9F70E949F0A0C94671353
:100730000C940000E9EFF1E0A0E0B8E000800EBC0E
:100740008111012C1197A0FDFDCF0192B9F70DB4D5
:100750000895FC018091F801882311F13FB7F894C6
:1007600082E08093E9002091F200822F90E0181639
:10077000190614F481E090E0882339F0289844E6C3
:100780004093F7014091F1004083222339F02091FA
:10079000F200211103C02BE62093E8003FBF08952B
:1007A0008FEF9FEF08952FB7F89483E08093E900CF
:1007B0009091E800892F807295FF04C09091F2001B
:1007C00080E4891B2FBF08958091EF0181110DC036
:1007D00082E08093EB0184E08093EC011092EE01C3
:1007E0001092ED0181E08093EF018BEE91E008958E
:1007F000CF93DF931F92CDB7DEB76983DC01ED9114
:10080000FC910280F381E02D41E050E0BE016F5F7A
:100810007F4F09950F90DF91CF91089583E08093EA
:10082000E9008091F200882319F08AE38093E800C0
:1008300008950E94D30390E00895CF93DF931F9211
:10084000CDB7DEB7FC018485958597FD08C02FEFF5
:100850003FEF358724870F90DF91CF910895CE0128
:1008600001960E94A903019719F4898190E0F3CFC2
:100870008FEF9FEFF0CF0F931F93CF93DF931F92D4
:10088000CDB7DEB78C01FC018485958597FF0BC041
:10089000CE0101960E94A903019771F4898190E02D
:1008A000F80195878487F801848595850F90DF91FD
:1008B000CF911F910F9108958FEF9FEFF1CFFC0122
:1008C0008485958597FD0BC09FB7F89482E080934F
:1008D000E9008091F2009FBF90E0019608959FB7D4
:1008E000F89482E08093E9008091F2009FBF90E04D
:1008F00008954091E5015091E6012091E301309186
:10090000E40142175307B4F49091E8009570E1F3C5
:100910009091E80092FD19C08093F1008091E5016B
:100920009091E60101968F739927892B19F48EEF28
:100930008093E8008091E5019091E6010196909303
:10094000E6018093E50181E0089580E00895DF925B
:10095000EF92FF920F931F93CF93DF93D82E8A01CC
:10096000EB017B01E40EF51ECE15DF0559F0D7FE35
:1009700012C0FE0184910E94790421968111F4CF66
:100980000FEF1FEFC801DF91CF911F910F91FF90E3
:10099000EF90DF9008958881EECF0F931F93CF9350
:1009A000DF931F92CDB7DEB782E0898342E450E047
:1009B00069E676E080E80E94A7040E94E403DC0177
:1009C00012960D911C910115110589F0D801ED9138
:1009D000FC910280F381E02DBE016F5F7F4FC80163
:1009E000099597FD04C0F80100851185ECCF898138
:1009F0000F90DF91CF911F910F910895615030F0CA
:100A00002091F100FC0120830196F8CF289884E61C
:100A10008093F7010895AF92BF92CF92DF92EF9249
:100A2000FF920F931F93CF93DF936C017B018B0198
:100A3000040F151FEB015E01AE18BF08C017D107E8
:100A400059F06991D601ED91FC910190F081E02D72
:100A5000C6010995892B79F7C501DF91CF911F91C7
:100A60000F91FF90EF90DF90CF90BF90AF900895DF
:100A70003FB7F89480917F0190918001A09181010E
:100A8000B091820126B5A89B05C02F3F19F00196B1
:100A9000A11DB11D3FBFBA2FA92F982F8827BC01D8
:100AA000CD01620F711D811D911D42E0660F771F00
:100AB000881F991F4A95D1F708958F929F92AF9200
:100AC000BF92CF92DF92EF92FF926B017C010E9466
:100AD00038054B015C01C114D104E104F104B9F003
:100AE0000E943805681979098A099B09683E734094
:100AF0008105910580F321E0C21AD108E108F108CF
:100B000088EE880E83E0981EA11CB11CE4CFFF90F4
:100B1000EF90DF90CF90BF90AF909F908F9008950F
:100B20008F929F92AF92BF92CF92DF92EF92FF92FD
:100B30000F931F93CF93DF936C017B018A01809108
:100B40000E01882309F45CC08091F801882309F420
:100B500057C08091EA0180FF05C08091E00082606B
:100B60008093E000E801B12C8AEFA82E93E0892E53
:100B70002AE3922E209711F4BB20D9F10E94D303CF
:100B800081110AC0AA94AA20D9F161E070E080E046
:100B900090E00E945D05EECF8C171D0611F00CF061
:100BA0008C2F9FB7F8948092E9002091E80025FDF2
:100BB00002C09FBFDFCF282F30E0C21BD30BF7014D
:100BC000815020F041914093F100FACFE20EF31EE4
:100BD000BB2021F09092E800B12CEBCF8091E8008F
:100BE00085FDE7CF9092E800BB24B394209709F3EA
:100BF000F3CF5D9884E68093E901101611063CF06E
:100C000081E090E0F6019383828310E000E0C80168
:100C1000DF91CF911F910F91FF90EF90DF90CF90D8
:100C2000BF90AF909F908F9008952D9A0895BC012A
:100C300090E080E00C945D058FB18095807F669B8D
:100C400088601C9B846008956F927F928F929F9220
:100C5000AF92BF92CF92DF92EF92FF920F931F93CA
:100C6000CF93DF936D3079F0C0918C01D0918D01DD
:100C70006A30D1F410928F0110928E012896D09391
:100C80008D01C0938C0181E090E0DF91CF911F91A5
:100C90000F91FF90EF90DF90CF90BF90AF909F901B
:100CA0008F907F906F900895C0908B01B09001015C
:100CB00040918E0150918F0185E0689FF0011124D1
:100CC000E455FF4F9A01812C90E1D92E95E010E078
:100CD000891629F0BF016F5F7F4F1491FB01BE01A0
:100CE00088E0A82E10FD16C09C2CCB1014C01695C1
:100CF000AA946F5F7F4FA110F5CF83942F5F3F4F72
:100D000096E08912E3CF4A5F5F4F50938F01409383
:100D10008E01B9CF9B2C2038310548F7603471051E
:100D200030F7CB0101E081FD04E080FD000F82FD82
:100D30000295887FD89ED0011124A20FA750BE4FE4
:100D40008C9190FE03C0802B8C93D1CF0095802393
:100D5000FBCF90919801982329F4909199019823C1
:100D600081E009F480E0089580E00C949A0381E02A
:100D700080939A018FE991E0FC0130E020E040810E
:100D8000411104C010929A0180E008952F5F3F4FF7
:100D900038962830310599F7019621E0873A920775
:100DA00059F781E00895089590E080E008958F92CA
:100DB0009F92AF92BF920F931F93CF93DF93CDB7C4
:100DC000DEB7A1970FB6F894DEBF0FBECDBF19A254
:100DD000423008F44AE08E010F5D1F4F842E912CA3
:100DE000B12CA12CA50194010E943013E62FB9016A
:100DF000CA01EA3044F5E05DD801EE938D01232B62
:100E0000242B252B79F790E080E0109769F0FD0105
:100E100001900020E9F73197AF014A1B5B0BBD0140
:100E200089E496E00E940B05A1960FB6F894DEBF08
:100E30000FBECDBFDF91CF911F910F91BF90AF90AB
:100E40009F908F900895E95CD7CFFC01019000201E
:100E5000E9F73197AF01481B590BBC0189E496E0D3
:100E60000C940B05CF92DF92EF92FF92CF93DF931A
:100E70006C01990FEE08FF08F7FE19C06DE289E4D6
:100E800096E00E942406EC0166277727CB016C19B7
:100E90007D098E099F094AE00E94D7068C0F9D1F8D
:100EA000DF91CF91FF90EF90DF90CF9008954AE0CF
:100EB000C701B601DF91CF91FF90EF90DF90CF9007
:100EC0000C94D7060C94E8121F920F920FB60F9253
:100ED00011248F939F938091E1009091E100937F83
:100EE0009093E10083FF0FC01092E90091E090938E
:100EF000EB001092EC0092E39093ED001092F80159
:100F000098E09093F00082FF22C093E09093E90074
:100F10009091F200992319F09AE39093E800909150
:100F2000E901992341F09091E90191509093E901F1
:100F3000911101C05D9A9091F701992341F0909130
:100F4000F70191509093F701911101C0289A84FF05
:100F500018C08091E2008E7E81608093E2008091D3
:100F6000E1008F7E8093E1008091EA018E7E8061B6
:100F70008093EA019F918F910F900FBE0F901F9069
:100F8000189580FFF7CF8091E2008E7E806180937C
:100F9000E2008091E1008E7E8093E1008091EA0181
:100FA0008E7E8160E5CF1F920F920FB60F921124B3
:100FB000CF92DF92EF92FF920F931F932F933F9365
:100FC0004F935F936F937F938F939F93AF93BF9351
:100FD000EF93FF93CF93DF93CDB7DEB76C97DEBF70
:100FE000CDBF1092E9008091E80083FF25C068E042
:100FF000CE0145960E94FE0482EF8093E8008D8921
:1010000087FF39C09091E80090FFFCCF982F907631
:1010100009F034C19E894F89588D2F89F88C911120
:1010200031C0803861F58091E8018093F100109221
:10103000F1008EEF8093E8006C960FB6F894DEBF57
:101040000FBECDBFDF91CF91FF91EF91BF91AF91D7
:101050009F918F917F916F915F914F913F912F91D0
:101060001F910F91FF90EF90DF90CF900F900FBEE8
:101070000F901F9018959EEF9093E800C7CF1092A5
:10108000F100D5CF913059F48111D3CF41305105C2
:1010900081F68091E8018D7F8093E801CACF93307B
:1010A00049F48111C6CF4130510519F68091E8010C
:1010B0008260F2CF953041F48091E80080FFFCCF50
:1010C00020682093E300B5CF963009F0A9C00B8DBE
:1010D0001C8D22E01092E9001092E6011092E501C9
:1010E000F2122EC01092E4011092E3010E94CD048E
:1010F0001F8299E09983FA8291E09E8390EA988713
:101100009AEF99872091E5013091E601275F3F4FE3
:101110003C832B838D831092E9001092E60110929C
:10112000E5011093E4010093E30149E050E0BE01C2
:101130006F5F7F4F80E00E94A7040E94CD0479CFAB
:101140001093E4010093E3010E94E403DC01129692
:101150000D911C910115110509F451C1D801ED91B2
:10116000FC910480F581E02DBE016B5E7F4FC801CC
:101170000995009709F03EC1F80100851185EACF75
:10118000F3E0FF120EC08F89882309F440C082303B
:1011900061F440E860E18DEC96E00E944F0A811115
:1011A00048CF81E28093EB0047CF813029F440E8BB
:1011B0006BE081EC96E0F1CF833099F70E94E40375
:1011C000DC011296ED90FC908E010F5F1F4F6801BD
:1011D000E114F10479F0D701ED91FC910680F781DB
:1011E000E02DB801C7010995080F111DF701E08432
:1011F000F184EECFD8011C92F60101900020E9F7AE
:101200003197BF016C197D0940E0C601C6CF6BEA7A
:1012100076E0FB01449150E080E80E94A70409CFEA
:10122000973009F4BECF983021F481E08093F1002B
:1012300000CF993009F0FDCE837009F0B2CFE4E120
:10124000F1E081E031E096E32191222371F0809377
:10125000E9003093EB00DF0111972C912093EC0013
:101260009093ED008F5F873079F78EE78093EA00E7
:101270001092EA008F898093F801DBCE8B8D9C8DD4
:101280001092E9001092E6011092E5019093E401BA
:101290008093E301898D811192C08E899D89913A55
:1012A00049F4813209F07DCF47E050E067E071E01A
:1012B00080E0B3CF913209F074CF833269F48F8923
:1012C000988DB0E0A0E08093030190930401A09377
:1012D0000501B0930601ADCE803269F48091E8003B
:1012E00082FFFCCF67E087E091E00E94FE048BEF75
:1012F0008093E8009ECE823209F09BCE8F89809346
:101300000E01EEEFFFE7859194918B3F9C4D51F1DB
:10131000E0E0F8E08091070190910801A0910901B7
:10132000B0910A01803B9440A105B105F1F4809190
:101330000E0180FD1AC0EE3F8AE0F80789F587E7C5
:1013400097E791838083809160008093E70188E133
:101350009BE00FB6F894A895809360000FBE909321
:10136000600067CEEEEFFAE0D5CF808191818737BC
:10137000974709F05ECEA8958091600088618093C0
:1013800060008091E70180936000EE3F2AE0F20761
:1013900089F08091FE0A9091FF0A9183808349CE63
:1013A000808191818737980751F29093FF0A80934B
:1013B000FE0AC5CF1092FF0A1092FE0A3ACE0E9492
:1013C000E403DC0112960D911C910115110509F43D
:1013D000E8CED801ED91FC910190F081E02DBE01A5
:1013E0006B5E7F4FC8010995811123CEF8010085FE
:1013F0001185EBCF181619060CF41BCED2CEF1E0F6
:10140000FF12BECE6FEA76E004CF1F920F920FB6A6
:101410000F9211242F933F938F939F93AF93BF937A
:101420008091830190918401A0918501B091860102
:1014300030917E0123E0230F2D3758F50196A11D31
:10144000B11D20937E018093830190938401A0932A
:101450008501B093860180917F0190918001A091D8
:101460008101B09182010196A11DB11D80937F0180
:1014700090938001A0938101B0938201BF91AF91BD
:101480009F918F913F912F910F900FBE0F901F90C2
:10149000189526E8230F0296A11DB11DD2CFEF9219
:1014A000FF920F931F93CF93DF93F82E192FE62E01
:1014B000042F81E0860F880F0E94790483E00E9448
:1014C0007904CF2DD12FEC0EFD2EF11CCE15DF05AA
:1014D000B9F007FF13C0FE0184910E947904182F10
:1014E00080E00E947904812321968111EFCFDF9162
:1014F000CF911F910F91FF90EF9008958881EDCFCC
:1015000081E0F5CFE9EFF5E01382128288EE93E0F7
:10151000A0E0B0E084839583A683B7838EE191E059
:10152000918380838FEF9FEF95878487E9E4F6E0CE
:101530001382128280E391E09183808308957894EE
:1015400084B5826084BD84B5816084BD85B58260C8
:1015500085BD85B5816085BD80916E008160809379
:101560006E001092810080918100826080938100E2
:1015700080918100816080938100809180008160F2
:10158000809380008091910082608093910080918F
:1015900091008160809391008091900081608093A0
:1015A00090008091C10084608093C1008091C1004F
:1015B00082608093C1008091C10081608093C100EE
:1015C0008091C30081608093C3008091C0008260DD
:1015D0008093C0008091C20081608093C20080919E
:1015E0007A00846080937A0080917A008260809390
:1015F0007A0080917A00816080937A0080917A00ED
:10160000806880937A001092F8011092E80110929D
:10161000EA018091D70081608093D70080EA8093AF
:10162000D80089B5806189BD89B5826089BD09B45A
:1016300000FEFDCF61E070E080E090E00E945D057B
:101640008091D8008F7C80618093D8008091E000E9
:10165000807F8093E0008091E1008E7E8093E100A6
:101660008DE08093E200559A209A81EC80937C0073
:1016700085B1806F85B984B1877E84B984B1876E66
:1016800084B95E9A5F988AB1806D8AB9769A6E98AD
:1016900081B3806F81BB899880B38D7080BB80E5FA
:1016A0008CBD81E08DBD85E090E00E9417065F9AB9
:1016B00085E090E00E9417065E985C98ECE5F6E005
:1016C00089E696E024912EBD00000DB407FEFDCF03
:1016D00031968E179F07B1F75C9A81E8809364007A
:1016E000809165008160809365000E94B4060E942D
:1016F0001C0687FF15C05C9885EA8EBD00000DB4FE
:1017000007FEFDCF5C9A2E982F982D98809164004B
:1017100080628093640081E083BF889513BEFCCF14
:101720000E941C0682FF48C02D980E941C068478E7
:101730008438E1F40E94150688EC90E00E941706B8
:101740002F9882E090E00E94E8128F3F29F06FEF1F
:1017500082E090E00E94F01284EF91E00E94170670
:101760002F9A0E941C0684788438D9F30E941C06A4
:1017700084718431E1F40E94150688EC90E00E94A7
:1017800017062E9882E090E00E94E812882329F044
:1017900060E082E090E00E94F01284EF91E00E940D
:1017A00017062E9A0E941C0684718431D9F388ECA6
:1017B00090E00E941706B4CF0E94150682E090E0E8
:1017C0000E946207882309F478C03E9A3F9A81E01C
:1017D00090E00E946207082F0470902E81FF0EC0D7
:1017E00001112E98C1EFDFEF08E010E00E941C0607
:1017F00086FF66C02E9A2F9A0E94150682E390E01B
:101800000E9417060E941C068111F8CF82E3809384
:101810000001809164008E7F8093640080917A0043
:10182000806480937A0080917A0086FDFCCFC0911D
:101830007800D09179000E943805AB01BC01CE013F
:10184000B0E0A0E0DC01992788276C017D01C40E7F
:10185000D51EE61EF71EC701B60120916400216067
:1018600020936400611571058105910511F00E94B6
:10187000DF1228E0222E312C412C512CC6E4D0E07E
:101880003CE4832E912C0AE08FB7F89440918301B9
:101890005091840160918501709186018FBF1091F4
:1018A0008901112309F4C5C01092890180E090E0FC
:1018B000892B51F30E940000E6CF3E983F9887CFD6
:1018C000992029F0C430D10511F42E9A2F9881E087
:1018D0000E949A039E01D7FF04C0222733272C1BA6
:1018E0003D0B27703327CE01D7FD0796A3E09595D2
:1018F0008795AA95E1F7D7FF05C00197A801421B7C
:10190000530B9A01AC015695542F44275795479590
:1019100047505E4FF12CE12C3801621A730A8E3F5A
:101920006FEF9607B1F1DA01AC56BF4F6A0170E074
:1019300060E0F701E455FA4F5F018F3F980779F0B7
:10194000F501E60FF71FE491F0E02F01022E01C030
:10195000440C0A94EAF7F60154884528448A211574
:10196000310571F0F501E60FF71FE491F0E0062C68
:1019700002C0F595E7950A94E2F7FC91EF2BEC9302
:101980006F5F7F4F1196FFEFCF1ADF0A6835710541
:10199000A1F6019668E5E60EF11C40585F4FA0EBFA
:1019A000EA16F10409F0BBCF0E94B4068FE090E084
:1019B0000E9417062196C931D10509F017CF992049
:1019C00011F02F9A2D9880E991E00E9417060E944D
:1019D000150681E090E00E94620780FF0FCF8AE049
:1019E00090E00E9462079FEF980F9E3F08F006CF9D
:1019F00022E330E030938F0120938E0128E330E022
:101A000030938D0120938C01CBE0D0E0682F89E4E6
:101A100096E00E942406CE010E9462072196C13101
:101A2000D105A1F70E94B40688EE93E00E94170644
:101A3000E5CE80918A01D42ED81A8D2D9091000187
:101A4000D91648F48F5F891708F030CF81E083BF43
:101A5000889513BE2BCF81E08093890140938A0142
:101A600080918701909188010196909388018093DD
:101A7000870180910201882309F48BC38091990129
:101A8000809398010E941C068093990180E80E942F
:101A9000A906882349F08091E1019091E201019724
:101AA0009093E2018093E10180E10E94A9068823DE
:101AB00049F08091E1019091E20101969093E20159
:101AC0008093E10180E20E94A906882349F0809179
:101AD000DF019091E00101979093E0018093DF0195
:101AE00080E40E94A906882349F08091DF0190914B
:101AF000E00101969093E0018093DF018091E10184
:101B00009091E20197FF06C087E090E09093E20198
:101B10008093E1018091E1019091E201089724F026
:101B20001092E2011092E1018091DF019091E001B9
:101B300097FF06C087E090E09093E0018093DF017B
:101B40008091DF019091E001089724F01092E0016C
:101B50001092DF0188E00E94A906882309F43EC1A3
:101B60002091DF013091E0014091E1015091E201CB
:101B7000B90193E0660F771F9A95E1F7FB01E156F3
:101B8000FE4FE40FF51F9081911128C191E09083E1
:101B9000263031050CF0FBC2FB01E955FE4FE40F86
:101BA000F51F90819A3009F0F0C2FB01E155FE4F1C
:101BB000E40FF51F9081913009F0E7C2E0919D019B
:101BC000F0919E013196F0939E01E0939D01982F34
:101BD0002230310524F1F901B3E0EE0FFF1FBA9571
:101BE000E1F7E956FE4FE40FF51FE081EA30B9F462
:101BF000F901A3E0EE0FFF1FAA95E1F7E157FE4FB1
:101C0000E40FF51FE081E13051F4E0919D01F09186
:101C10009E013196F0939E01E0939D01982F4230F2
:101C20005105E4F0FB01E156FE4FE40FF51FDF0123
:101C30001197AC91AA3071F43297E081E13051F400
:101C4000E0919D01F0919E013196F0939E01E09309
:101C50009D01982F463051050CF011C461567E4FFE
:101C6000FB01E40FF51F61816A3071F4628161301C
:101C700059F460919D0170919E016F5F7F4F709349
:101C80009E0160939D01982F263031050CF054C0C1
:101C90004230510544F1F901B3E0EE0FFF1FBA9550
:101CA000E1F7E40FF51FEA55FE4F60816A30C1F499
:101CB000F901A3E0EE0FFF1FAA95E1F7E40FF51F6E
:101CC000E355FE4F6081613059F460919D01709140
:101CD0009E016F5F7F4F70939E0160939D01982FCF
:101CE000463051052CF5F90173E0EE0FFF1F7A9590
:101CF000E1F7E955FE4FE40FF51F61816A30C1F449
:101D0000F90163E0EE0FFF1F6A95E1F7E155FE4F21
:101D1000E40FF51F6281613059F460919D0170916B
:101D20009E016F5F7F4F70939E0160939D01982F7E
:101D3000223031050CF450C04230510544F1F90114
:101D4000B3E0EE0FFF1FBA95E1F7E40FF51FEA5677
:101D5000FE4F60816A30C1F4F901A3E0EE0FFF1F6E
:101D6000AA95E1F7E40FF51FE357FE4F608161305C
:101D700059F460919D0170919E016F5F7F4F709348
:101D80009E0160939D01982F463051052CF5F90175
:101D900073E0EE0FFF1F7A95E1F7E956FE4FE40F6F
:101DA000F51F61816A30C1F463E0220F331F6A9529
:101DB000E1F721573E4F240F351FF90122812130D1
:101DC00059F420919D0130919E012F5F3F4F309338
:101DD0009E0120939D01982F9093020184E00E9420
:101DE000A906882309F4A3C02091DF013091E00106
:101DF0006091E1017091E201F90143E0EE0FFF1FF4
:101E00004A95E1F7DF01A156BE4FA60FB71F9C917F
:101E100091118DC00C93A9014150510946305105D3
:101E2000F8F4DA0193E0AA0FBB1F9A95E1F7A156E7
:101E3000BE4FA60FB71F9C91913091F4DF01A955B9
:101E4000BE4FA60FB71F9C91913051F4A0919D01F8
:101E5000B0919E011196B0939E01A0939D01182F01
:101E6000DB011197A630B10508F05FC0E156FE4FC7
:101E70006F01C60ED71E7601F1E0EF1AF108F701E7
:101E80009081913071F4F6019181913051F4E0919B
:101E90009D01F0919E013196F0939E01E0939D018A
:101EA000182F4630510508F040C02F5F3F4FF3E038
:101EB000220F331FFA95E1F7F901E156FE4FEA0FC1
:101EC000FB1F9081E3E0440F551FEA95E1F7913045
:101ED00091F4FA01E156FE4FE60FF71F9181913020
:101EE00051F4E0919D01F0919E013196F0939E0195
:101EF000E0939D01182F41565E4FA40FB51F9C9192
:101F0000913099F421563E4F260F371FF9019181E8
:101F1000913059F420919D0130919E012F5F3F4FE8
:101F200030939E0120939D01182F1093020188E0A9
:101F30000E94A906882349F184E00E94A90688230B
:101F400021F1EFE9F1E010821182128213821482F2
:101F5000158216821782389611E0EF3DF10799F746
:101F60001092E0011092DF011092E2011092E10163
:101F700010929E0110929D0110929C0110929B0163
:101F800081E08093020110929A010E94B70680E0DE
:101F9000E9EFF1E081118FEF002481938193819328
:101FA00081930394D1F7B12CA12CD12CC12C11E039
:101FB000950121563E4F7901712C612CC7018A1978
:101FC0009B098F599140B0928F01A0928E0170921F
:101FD0008D0160928C012091DF013091E001C216E9
:101FE000D30609F01DC22091E1013091E201821770
:101FF000930709F015C21092010110938B012091F3
:10200000960130919701C216D30651F520919401A3
:10201000309195018217930719F580919001909165
:102020009101A0919201B09193010196A11DB11D62
:102030008093900190939101A0939201B0939301AA
:102040000B97A105B10564F01092010110928B016C
:1020500010929001109291011092920110929301AE
:10206000F70180818111E1C188E391E00E94250799
:10207000F8E06F0E711C2FEFE21AF20A30E46316DB
:10208000710409F09BCF4FEFC41AD40A58E0A50E93
:10209000B11C68E0C616D10409F08ACF81E08093B4
:1020A000010110928B01D0938F01C0938E01109289
:1020B0008D0110928C018EE391E00E942507D09350
:1020C0008F01C0938E018AE090E090938D01809300
:1020D0008C0188E491E00E94250780919D019091F8
:1020E0009E010E94320790928F0180928E01E4E15E
:1020F000F0E0F0938D01E0938C018EE491E00E947A
:10210000250780919B0190919C010E94320790923B
:102110008F0180928E018EE190E090938D018093EB
:102120008C018091DF019091E0010E94320783E5EC
:1021300091E00E9425078091E1019091E2010E94C7
:10214000320780919A01D0938F01C0938E0188232A
:1021500009F47EC188E290E090938D0180938C0118
:1021600087E591E00E942507D0938F01C0938E01EF
:1021700082E390E090938D0180938C0181E691E061
:102180000E9425070E94B40691CB90E021CD90E0FB
:1021900022CD80919B0190919C0167EA71E02FE92B
:1021A00031E011E0F90150E040E0E080F0884F5F5D
:1021B0005F4FCE2CCF0CDD24DD1CD601129731F4FD
:1021C000A085A11103C00087019610E0DD24D394FF
:1021D000ED10EBC0A085AA3029F4F11003C0E08A0D
:1021E000019610E0389646305105F9F62F5F3F4FC3
:1021F00062177307B9F62FE931E0F90150E040E0CA
:10220000B081A281CB2ECA0EDD24DD1CB601623066
:10221000710531F46181611103C00183019610E001
:10222000B13009F0CEC061816A3029F4A11103C038
:10223000B283019610E04F5F5F4F389648305105EA
:10224000F9F62F5F3F4F41E0253A3407B1F64FE9E9
:1022500051E0FA0170E060E0E080F2886F5F7F4F4C
:10226000CE2CCF0CDD24DD1CD601129731F4A185D4
:10227000A11103C00187019610E0DD24D394ED1075
:10228000ABC0A185AA3029F4F11003C0E28A0196FF
:1022900010E0389666307105F9F64F5F5F4F2417EE
:1022A0003507B9F622E030E0F901E156FE4F50E083
:1022B00040E0B081A6854F5F5F4FCB2ECA0EDD2474
:1022C000DD1CB6016230710531F46781611103C014
:1022D0000783019610E0B13009F08AC067816A3047
:1022E00029F4A11103C0B687019610E03896463054
:1022F0005105F9F62F5F3F4F28303105A9F690932D
:102300009C0180939B0110930201112309F43FCE9D
:102310000E94B70681113BCE0E949012A20191014A
:102320000E94FE1270939701609396010E94901292
:10233000A20191010E94FE12709395016093940195
:102340002091960130919701E3E0220F331FEA9527
:10235000E1F721563E4FC901860F971FFC0180818E
:102360008111DACF0E94901222E030E040E050E08C
:102370000E94FE1240919601509197012091940184
:1023800030919501672B682B692B09F03CC0CA017D
:1023900053E0880F991F5A95E1F781569E4F820F9F
:1023A000931F21E0FC012083F2CDE1101BCFA0851B
:1023B000AA3009F017CFEE24E394FE1013CFF08279
:1023C0000FCFB11138CF61816A3009F034CFA1301D
:1023D00009F031CFA0832DCFE1105BCFA185AA30CA
:1023E00009F057CFEE24E394FE1053CFF0824FCF85
:1023F000B1117CCF67816A3009F078CFA13009F044
:1024000075CFA08371CFCA0143E0880F991F4A9509
:10241000E1F781569E4F820F931FFC010083B7CDD9
:102420001093010110928B01EACD813021F48AE3EF
:1024300091E00E942507F70180818A3021F48CE326
:1024400091E00E942507F7018081811111CE0CCE09
:1024500088E290E090938D0180938C018BE691E06F
:102460000E942507D0938F01C0938E0182E390E0F4
:1024700090938D0180938C0184E791E081CE26308A
:1024800031050CF408CC5BCC8F929F92AF92BF9237
:10249000CF92DF92EF92FF92CF93DF93EC016881AE
:1024A00079818A819B81611571058105910521F4EE
:1024B00064E279ED8BE597E02DE133EF41E050E008
:1024C0000E94FE1249015A019B01AC01A7EAB1E446
:1024D0000E941D136B017C01ACEEB4EFA5019401C9
:1024E0000E942B13C60ED71EE81EF91EF7FE06C06B
:1024F00081E0C81AD108E10880E8F80AC882D982C8
:10250000EA82FB82C701B6019F77DF91CF91FF90EE
:10251000EF90DF90CF90BF90AF909F908F900895F5
:102520008F929F92AF92BF92CF92DF92EF92FF92E3
:1025300060910F0170911001809111019091120131
:10254000611571058105910521F464E279ED8BE552
:1025500097E02DE133EF41E050E00E94FE12490187
:102560005A019B01AC01A7EAB1E40E941D136B0163
:102570007C01ACEEB4EFA50194010E942B13C60EB2
:10258000D71EE81EF91EF7FE06C081E0C81AD10862
:10259000E10880E8F80AC0920F01D0921001E092A1
:1025A0001101F0921201C701B6019F77FF90EF90E1
:1025B000DF90CF90BF90AF909F908F9008956093E1
:1025C0000F017093100180931101909312010895EF
:1025D000F999FECF92BD81BDF89A992780B50895EB
:1025E000262FF999FECF1FBA92BD81BD20BD0FB62F
:1025F000F894FA9AF99A0FBE01960895052E97FB62
:102600001EF400940E94151357FD07D00E9430134A
:1026100007FC03D04EF40C9415135095409530955B
:1026200021953F4F4F4F5F4F08959095809570953E
:1026300061957F4F8F4F9F4F08950E945213A59F22
:10264000900DB49F900DA49F800D911D11240895AD
:10265000B7FF0C941D130E941D13821B930B08954A
:10266000A1E21A2EAA1BBB1BFD010DC0AA1FBB1F96
:10267000EE1FFF1FA217B307E407F50720F0A21B08
:10268000B30BE40BF50B661F771F881F991F1A9475
:1026900069F760957095809590959B01AC01BD019F
:1026A000CF010895A29FB001B39FC001A39F700DF9
:1026B000811D1124911DB29F700D811D1124911D4A
:1026C0000895EE0FFF1F0590F491E02D0994F89402
:0226D000FFCF3A
:1026D200100101FFFFFFFF00E10000000000000108
:1026E20000000000C1808100000000000000F8032B
:1026F200900519040E045F041D043B040000000051
:1027020024060B05D406D3062E0073006F002D3D60
:1027120020534F53203D2D00596F753A20004D65CF
:102722003A2000203A200046696E69736865642188
:1027320000412B42203D206E657700427574746F14
:0E2742006E733A00413D205320423D204F006F
:00000001FF
